:100000000C9434000C943E000C943E000C943E0082
:100010000C943E000C943E000C943E000C943E0068
:100020000C943E000C943E000C943E000C943E0058
:100030000C943E000C943E000C943E000C943E0048
:100040000C943E000C943E000C943E000C943E0038
:100050000C943E000C943E000C943E000C943E0028
:100060000C943E000C943E0011241FBECFEFD8E04C
:10007000DEBFCDBF0E9440000C9422010C94000012
:100080000E94E6008FEF84B904E312E1C1E0D0E002
:1000900025E0E22E28E0F22E90E080E025B1AE01CE
:1000A000082E01C0440F0A94EAF7242B25B9E1E099
:1000B000F3E53197F1F700C0000001968830910513
:1000C00069F730E020E045B1CE01022E01C0880F73
:1000D0000A94EAF78095842385B981E093E5019736
:1000E000F1F700C000002F5F3F4F2830310559F76E
:1000F00097E0ECE4F1E09150E040F040E1F700C01F
:10010000000097E0C92ED12C85B19E010C2C01C0B6
:10011000220F0A94EAF7822B85B985B10E94FD006F
:1001200081E093E50197F1F700C0000091E0C91A62
:10013000D10850F787E0C82ED12C25B1CE010C2C68
:1001400001C0880F0A94EAF78095822385B985B1AA
:100150000E94FD0081E093E50197F1F700C00000E7
:1001600091E0C91AD10848F7F7E02CE441E0F150DA
:1001700020404040E1F700C000008BE40E9D90015C
:100180000F9D300D1E9D300D11248901075E194C05
:1001900095B1212F2770FE0102C0EE0FFF1F2A9597
:1001A000E2F79E2795B9E1E0F3E53197F1F700C05A
:1001B0000000815019F715B8F7E02CE441E0F15048
:1001C00020404040E1F700C0000066CF1092C5001B
:1001D00096E09093C400E0ECF0E080818260808340
:1001E00088E18093C1009093C20008959091C0006F
:1001F00095FFFCCF8093C6000895CF93C82F64E687
:100200000E941601805D0E94F6002AE08C2F622F6A
:100210000E941601C92F0E94160180E3890F0E94D7
:10022000F60080E38C0FCF910C94F600991B79E0D7
:1002300004C0991F961708F0961B881F7A95C9F776
:0802400080950895F894FFCFAA
:00000001FF
